{
  "contractName": "Ballot",
  "abi": [
    {
      "constant": false,
      "inputs": [
        {
          "name": "proposal",
          "type": "uint256"
        }
      ],
      "name": "vote",
      "outputs": [],
      "payable": false,
      "stateMutability": "nonpayable",
      "type": "function"
    },
    {
      "constant": true,
      "inputs": [
        {
          "name": "",
          "type": "uint256"
        }
      ],
      "name": "proposals",
      "outputs": [
        {
          "name": "name",
          "type": "bytes32"
        },
        {
          "name": "voteCount",
          "type": "uint256"
        }
      ],
      "payable": false,
      "stateMutability": "view",
      "type": "function"
    },
    {
      "constant": true,
      "inputs": [],
      "name": "chairperson",
      "outputs": [
        {
          "name": "",
          "type": "address"
        }
      ],
      "payable": false,
      "stateMutability": "view",
      "type": "function"
    },
    {
      "constant": false,
      "inputs": [
        {
          "name": "to",
          "type": "address"
        }
      ],
      "name": "delegate",
      "outputs": [],
      "payable": false,
      "stateMutability": "nonpayable",
      "type": "function"
    },
    {
      "constant": true,
      "inputs": [],
      "name": "winningProposal",
      "outputs": [
        {
          "name": "winningProposal",
          "type": "uint256"
        }
      ],
      "payable": false,
      "stateMutability": "view",
      "type": "function"
    },
    {
      "constant": false,
      "inputs": [
        {
          "name": "voter",
          "type": "address"
        }
      ],
      "name": "giveRightToVote",
      "outputs": [],
      "payable": false,
      "stateMutability": "nonpayable",
      "type": "function"
    },
    {
      "constant": true,
      "inputs": [
        {
          "name": "",
          "type": "address"
        }
      ],
      "name": "voters",
      "outputs": [
        {
          "name": "weight",
          "type": "uint256"
        },
        {
          "name": "voted",
          "type": "bool"
        },
        {
          "name": "delegate",
          "type": "address"
        },
        {
          "name": "vote",
          "type": "uint256"
        }
      ],
      "payable": false,
      "stateMutability": "view",
      "type": "function"
    },
    {
      "constant": true,
      "inputs": [],
      "name": "winnerName",
      "outputs": [
        {
          "name": "winnerName",
          "type": "bytes32"
        }
      ],
      "payable": false,
      "stateMutability": "view",
      "type": "function"
    },
    {
      "inputs": [
        {
          "name": "proposalNames",
          "type": "bytes32[]"
        }
      ],
      "payable": false,
      "stateMutability": "nonpayable",
      "type": "constructor"
    }
  ],
  "bytecode": "0x6060604052341561000f57600080fd5b604051610b0b380380610b0b833981016040528080518201919050506000336000806101000a81548173ffffffffffffffffffffffffffffffffffffffff021916908373ffffffffffffffffffffffffffffffffffffffff16021790555060018060008060009054906101000a900473ffffffffffffffffffffffffffffffffffffffff1673ffffffffffffffffffffffffffffffffffffffff1673ffffffffffffffffffffffffffffffffffffffff16815260200190815260200160002060000181905550600090505b815181101561016757600280548060010182816100f7919061016e565b916000526020600020906002020160006040805190810160405280868681518110151561012057fe5b9060200190602002015160001916815260200160008152509091909150600082015181600001906000191690556020820151816001015550505080806001019150506100da565b50506101cf565b81548183558181151161019b5760020281600202836000526020600020918201910161019a91906101a0565b5b505050565b6101cc91905b808211156101c8576000808201600090556001820160009055506002016101a6565b5090565b90565b61092d806101de6000396000f30060606040526004361061008e576000357c0100000000000000000000000000000000000000000000000000000000900463ffffffff1680630121b93f14610093578063013cf08b146100b65780632e4176cf146100fc5780635c19a95c14610151578063609ff1bd1461018a5780639e7b8d61146101b3578063a3ec138d146101ec578063e2ba53f01461027e575b600080fd5b341561009e57600080fd5b6100b460048080359060200190919050506102af565b005b34156100c157600080fd5b6100d7600480803590602001909190505061036c565b6040518083600019166000191681526020018281526020019250505060405180910390f35b341561010757600080fd5b61010f61039f565b604051808273ffffffffffffffffffffffffffffffffffffffff1673ffffffffffffffffffffffffffffffffffffffff16815260200191505060405180910390f35b341561015c57600080fd5b610188600480803573ffffffffffffffffffffffffffffffffffffffff169060200190919050506103c4565b005b341561019557600080fd5b61019d6106ae565b6040518082815260200191505060405180910390f35b34156101be57600080fd5b6101ea600480803573ffffffffffffffffffffffffffffffffffffffff16906020019091905050610729565b005b34156101f757600080fd5b610223600480803573ffffffffffffffffffffffffffffffffffffffff16906020019091905050610875565b60405180858152602001841515151581526020018373ffffffffffffffffffffffffffffffffffffffff1673ffffffffffffffffffffffffffffffffffffffff16815260200182815260200194505050505060405180910390f35b341561028957600080fd5b6102916108d2565b60405180826000191660001916815260200191505060405180910390f35b6000600160003373ffffffffffffffffffffffffffffffffffffffff1673ffffffffffffffffffffffffffffffffffffffff16815260200190815260200160002090508060010160009054906101000a900460ff1615151561031057600080fd5b60018160010160006101000a81548160ff021916908315150217905550818160020181905550806000015460028381548110151561034a57fe5b9060005260206000209060020201600101600082825401925050819055505050565b60028181548110151561037b57fe5b90600052602060002090600202016000915090508060000154908060010154905082565b6000809054906101000a900473ffffffffffffffffffffffffffffffffffffffff1681565b600080600160003373ffffffffffffffffffffffffffffffffffffffff1673ffffffffffffffffffffffffffffffffffffffff16815260200190815260200160002091508160010160009054906101000a900460ff1615151561042657600080fd5b3373ffffffffffffffffffffffffffffffffffffffff168373ffffffffffffffffffffffffffffffffffffffff161415151561046157600080fd5b5b600073ffffffffffffffffffffffffffffffffffffffff16600160008573ffffffffffffffffffffffffffffffffffffffff1673ffffffffffffffffffffffffffffffffffffffff16815260200190815260200160002060010160019054906101000a900473ffffffffffffffffffffffffffffffffffffffff1673ffffffffffffffffffffffffffffffffffffffff1614151561059f57600160008473ffffffffffffffffffffffffffffffffffffffff1673ffffffffffffffffffffffffffffffffffffffff16815260200190815260200160002060010160019054906101000a900473ffffffffffffffffffffffffffffffffffffffff1692503373ffffffffffffffffffffffffffffffffffffffff168373ffffffffffffffffffffffffffffffffffffffff161415151561059a57600080fd5b610462565b60018260010160006101000a81548160ff021916908315150217905550828260010160016101000a81548173ffffffffffffffffffffffffffffffffffffffff021916908373ffffffffffffffffffffffffffffffffffffffff160217905550600160008473ffffffffffffffffffffffffffffffffffffffff1673ffffffffffffffffffffffffffffffffffffffff16815260200190815260200160002090508060010160009054906101000a900460ff16156106925781600001546002826002015481548110151561066f57fe5b9060005260206000209060020201600101600082825401925050819055506106a9565b816000015481600001600082825401925050819055505b505050565b6000806000809150600090505b60028054905081101561072457816002828154811015156106d857fe5b9060005260206000209060020201600101541115610717576002818154811015156106ff57fe5b90600052602060002090600202016001015491508092505b80806001019150506106bb565b505090565b6000809054906101000a900473ffffffffffffffffffffffffffffffffffffffff1673ffffffffffffffffffffffffffffffffffffffff163373ffffffffffffffffffffffffffffffffffffffff161480156107d25750600160008273ffffffffffffffffffffffffffffffffffffffff1673ffffffffffffffffffffffffffffffffffffffff16815260200190815260200160002060010160009054906101000a900460ff16155b801561082057506000600160008373ffffffffffffffffffffffffffffffffffffffff1673ffffffffffffffffffffffffffffffffffffffff16815260200190815260200160002060000154145b151561082b57600080fd5b60018060008373ffffffffffffffffffffffffffffffffffffffff1673ffffffffffffffffffffffffffffffffffffffff1681526020019081526020016000206000018190555050565b60016020528060005260406000206000915090508060000154908060010160009054906101000a900460ff16908060010160019054906101000a900473ffffffffffffffffffffffffffffffffffffffff16908060020154905084565b600060026108de6106ae565b8154811015156108ea57fe5b9060005260206000209060020201600001549050905600a165627a7a72305820b271e09381d08c168965ba99cd9168b434cd1cc6cff9bedb7c6e85484db9d2a50029",
  "source": "pragma solidity ^0.4.2;\r\n\r\n//投票的智能合约\r\ncontract Ballot {\r\n\r\n    // 一个Voter结构代表一个选民\r\n    struct Voter{\r\n        uint weight; //票的权重\r\n        bool voted; //是否投票\r\n        address delegate; //选民的hash地址\r\n        uint vote;  //投票提案的索引\r\n    }\r\n\r\n    // 一个提案\r\n    struct Proposal{\r\n        bytes32 name; //提案的名称\r\n        uint voteCount; //累计投票数\r\n    }\r\n\r\n    //主席地址\r\n    address public chairperson;\r\n\r\n    //将以太坊账户映射为合约账户\r\n    mapping(address => Voter) public voters;\r\n\r\n    //提案的集合\r\n    Proposal[] public proposals;\r\n\r\n\r\n    //由主席创建投票提案\r\n    function Ballot(bytes32[] proposalNames) public {\r\n        chairperson = msg.sender;\r\n        voters[chairperson].weight = 1;\r\n\r\n        for (uint i = 0; i < proposalNames.length; i++) {\r\n            proposals.push(Proposal({\r\n                name: proposalNames[i],\r\n                voteCount:0\r\n            }));\r\n        }\r\n    }\r\n\r\n    //给选民投票权，只能由主席调用\r\n    function giveRightToVote(address voter) public{\r\n          require((msg.sender == chairperson) && !voters[voter].voted && (voters[voter].weight == 0));\r\n          voters[voter].weight = 1;\r\n    }\r\n\r\n    //委托他人投票\r\n    function delegate(address to) public {\r\n        Voter storage sender =  voters[msg.sender];\r\n        require(!sender.voted);\r\n        require(to != msg.sender);\r\n\r\n        while(voters[to].delegate != address(0)){\r\n            to = voters[to].delegate;\r\n            require(to != msg.sender);\r\n        }\r\n\r\n        sender.voted = true;\r\n        sender.delegate = to;\r\n        Voter storage delegate = voters[to];\r\n        if(delegate.voted){\r\n            proposals[delegate.vote].voteCount += sender.weight;\r\n        }\r\n        else{\r\n            delegate.weight += sender.weight;\r\n        }\r\n    }\r\n\r\n    //给提案投票\r\n    function vote(uint proposal) public {\r\n        Voter storage sender = voters[msg.sender];\r\n        require(!sender.voted);\r\n        sender.voted = true;\r\n        sender.vote = proposal;\r\n        proposals[proposal].voteCount += sender.weight;\r\n    }\r\n\r\n    //计算所有获胜的提案\r\n    function winningProposal() public view returns(uint winningProposal){\r\n        uint winningVoteCount = 0;\r\n        for (uint p = 0; p < proposals.length; p++) {\r\n            if(proposals[p].voteCount > winningVoteCount){\r\n                winningVoteCount = proposals[p].voteCount;\r\n                winningProposal = p;\r\n            }\r\n        }\r\n    }\r\n\r\n    function winnerName() public view returns (bytes32 winnerName) {\r\n        winnerName = proposals[winningProposal()].name;\r\n    }\r\n\r\n}",
  "sourcePath": "C:\\book\\Chapter_3\\contracts\\Ballot.sol",
  "compiler": {
    "name": "solc",
    "version": "0.4.18+commit.9cf6e910.Emscripten.clang"
  },
  "schemaVersion": "1.0.1",
  "updatedAt": "2017-12-26T12:02:27.647Z"
}